{
  "_format": "hh-sol-artifact-1",
  "contractName": "Transactions",
  "sourceName": "contracts/Transactions.sol",
  "abi": [
    {
      "anonymous": false,
      "inputs": [
        {
          "indexed": false,
          "internalType": "address",
          "name": "from",
          "type": "address"
        },
        {
          "indexed": false,
          "internalType": "address",
          "name": "receiver",
          "type": "address"
        },
        {
          "indexed": false,
          "internalType": "uint256",
          "name": "amount",
          "type": "uint256"
        },
        {
          "indexed": false,
          "internalType": "uint256",
          "name": "timestamp",
          "type": "uint256"
        },
        {
          "indexed": false,
          "internalType": "string",
          "name": "weapon",
          "type": "string"
        },
        {
          "indexed": false,
          "internalType": "string",
          "name": "weaponType",
          "type": "string"
        },
        {
          "indexed": false,
          "internalType": "string",
          "name": "weaponUrl",
          "type": "string"
        },
        {
          "indexed": false,
          "internalType": "string",
          "name": "id",
          "type": "string"
        }
      ],
      "name": "Transfer",
      "type": "event"
    },
    {
      "inputs": [
        {
          "internalType": "address payable",
          "name": "receiver",
          "type": "address"
        },
        {
          "internalType": "uint256",
          "name": "amount",
          "type": "uint256"
        },
        {
          "internalType": "string",
          "name": "weapon",
          "type": "string"
        },
        {
          "internalType": "string",
          "name": "weaponType",
          "type": "string"
        },
        {
          "internalType": "string",
          "name": "weaponUrl",
          "type": "string"
        },
        {
          "internalType": "string",
          "name": "id",
          "type": "string"
        }
      ],
      "name": "addToBlockchain",
      "outputs": [],
      "stateMutability": "nonpayable",
      "type": "function"
    },
    {
      "inputs": [],
      "name": "getTransactions",
      "outputs": [
        {
          "components": [
            {
              "internalType": "address",
              "name": "sender",
              "type": "address"
            },
            {
              "internalType": "address",
              "name": "receiver",
              "type": "address"
            },
            {
              "internalType": "uint256",
              "name": "amount",
              "type": "uint256"
            },
            {
              "internalType": "uint256",
              "name": "timestamp",
              "type": "uint256"
            },
            {
              "internalType": "string",
              "name": "weapon",
              "type": "string"
            },
            {
              "internalType": "string",
              "name": "weaponType",
              "type": "string"
            },
            {
              "internalType": "string",
              "name": "weaponUrl",
              "type": "string"
            },
            {
              "internalType": "string",
              "name": "id",
              "type": "string"
            }
          ],
          "internalType": "struct Transactions.Ts[]",
          "name": "",
          "type": "tuple[]"
        }
      ],
      "stateMutability": "view",
      "type": "function"
    }
  ],
  "bytecode": "0x608060405234801561001057600080fd5b50610d4a806100206000396000f3fe608060405234801561001057600080fd5b50600436106100365760003560e01c806383920e901461003b578063be97e7ba14610059575b600080fd5b610043610075565b6040516100509190610a96565b60405180910390f35b610073600480360381019061006e9190610708565b6103dd565b005b60606000805480602002602001604051908101604052809291908181526020016000905b828210156103d45783829060005260206000209060080201604051806101000160405290816000820160009054906101000a900473ffffffffffffffffffffffffffffffffffffffff1673ffffffffffffffffffffffffffffffffffffffff1673ffffffffffffffffffffffffffffffffffffffff1681526020016001820160009054906101000a900473ffffffffffffffffffffffffffffffffffffffff1673ffffffffffffffffffffffffffffffffffffffff1673ffffffffffffffffffffffffffffffffffffffff168152602001600282015481526020016003820154815260200160048201805461018d90610c45565b80601f01602080910402602001604051908101604052809291908181526020018280546101b990610c45565b80156102065780601f106101db57610100808354040283529160200191610206565b820191906000526020600020905b8154815290600101906020018083116101e957829003601f168201915b5050505050815260200160058201805461021f90610c45565b80601f016020809104026020016040519081016040528092919081815260200182805461024b90610c45565b80156102985780601f1061026d57610100808354040283529160200191610298565b820191906000526020600020905b81548152906001019060200180831161027b57829003601f168201915b505050505081526020016006820180546102b190610c45565b80601f01602080910402602001604051908101604052809291908181526020018280546102dd90610c45565b801561032a5780601f106102ff5761010080835404028352916020019161032a565b820191906000526020600020905b81548152906001019060200180831161030d57829003601f168201915b5050505050815260200160078201805461034390610c45565b80601f016020809104026020016040519081016040528092919081815260200182805461036f90610c45565b80156103bc5780601f10610391576101008083540402835291602001916103bc565b820191906000526020600020905b81548152906001019060200180831161039f57829003601f168201915b50505050508152505081526020019060010190610099565b50505050905090565b60006040518061010001604052803373ffffffffffffffffffffffffffffffffffffffff1681526020018873ffffffffffffffffffffffffffffffffffffffff16815260200187815260200142815260200186815260200185815260200184815260200183815250908060018154018082558091505060019003906000526020600020906008020160009091909190915060008201518160000160006101000a81548173ffffffffffffffffffffffffffffffffffffffff021916908373ffffffffffffffffffffffffffffffffffffffff16021790555060208201518160010160006101000a81548173ffffffffffffffffffffffffffffffffffffffff021916908373ffffffffffffffffffffffffffffffffffffffff1602179055506040820151816002015560608201518160030155608082015181600401908051906020019061052c9291906105d3565b5060a08201518160050190805190602001906105499291906105d3565b5060c08201518160060190805190602001906105669291906105d3565b5060e08201518160070190805190602001906105839291906105d3565b5050507f9b55bede2a5e547d7ee31e82aa09f4e9133d79343f16dec66ad737d1f0e7628533878742888888886040516105c39897969594939291906109fc565b60405180910390a1505050505050565b8280546105df90610c45565b90600052602060002090601f0160209004810192826106015760008555610648565b82601f1061061a57805160ff1916838001178555610648565b82800160010185558215610648579182015b8281111561064757825182559160200191906001019061062c565b5b5090506106559190610659565b5090565b5b8082111561067257600081600090555060010161065a565b5090565b600061068961068484610ae9565b610ab8565b9050828152602081018484840111156106a157600080fd5b6106ac848285610c03565b509392505050565b6000813590506106c381610ce6565b92915050565b600082601f8301126106da57600080fd5b81356106ea848260208601610676565b91505092915050565b60008135905061070281610cfd565b92915050565b60008060008060008060c0878903121561072157600080fd5b600061072f89828a016106b4565b965050602061074089828a016106f3565b955050604087013567ffffffffffffffff81111561075d57600080fd5b61076989828a016106c9565b945050606087013567ffffffffffffffff81111561078657600080fd5b61079289828a016106c9565b935050608087013567ffffffffffffffff8111156107af57600080fd5b6107bb89828a016106c9565b92505060a087013567ffffffffffffffff8111156107d857600080fd5b6107e489828a016106c9565b9150509295509295509295565b60006107fd8383610919565b905092915050565b61080e81610bcd565b82525050565b61081d81610b7f565b82525050565b61082c81610b7f565b82525050565b600061083d82610b29565b6108478185610b4c565b93508360208202850161085985610b19565b8060005b85811015610895578484038952815161087685826107f1565b945061088183610b3f565b925060208a0199505060018101905061085d565b50829750879550505050505092915050565b60006108b282610b34565b6108bc8185610b5d565b93506108cc818560208601610c12565b6108d581610cd5565b840191505092915050565b60006108eb82610b34565b6108f58185610b6e565b9350610905818560208601610c12565b61090e81610cd5565b840191505092915050565b6000610100830160008301516109326000860182610814565b5060208301516109456020860182610814565b50604083015161095860408601826109de565b50606083015161096b60608601826109de565b506080830151848203608086015261098382826108a7565b91505060a083015184820360a086015261099d82826108a7565b91505060c083015184820360c08601526109b782826108a7565b91505060e083015184820360e08601526109d182826108a7565b9150508091505092915050565b6109e781610bc3565b82525050565b6109f681610bc3565b82525050565b600061010082019050610a12600083018b610823565b610a1f602083018a610805565b610a2c60408301896109ed565b610a3960608301886109ed565b8181036080830152610a4b81876108e0565b905081810360a0830152610a5f81866108e0565b905081810360c0830152610a7381856108e0565b905081810360e0830152610a8781846108e0565b90509998505050505050505050565b60006020820190508181036000830152610ab08184610832565b905092915050565b6000604051905081810181811067ffffffffffffffff82111715610adf57610ade610ca6565b5b8060405250919050565b600067ffffffffffffffff821115610b0457610b03610ca6565b5b601f19601f8301169050602081019050919050565b6000819050602082019050919050565b600081519050919050565b600081519050919050565b6000602082019050919050565b600082825260208201905092915050565b600082825260208201905092915050565b600082825260208201905092915050565b6000610b8a82610ba3565b9050919050565b6000610b9c82610ba3565b9050919050565b600073ffffffffffffffffffffffffffffffffffffffff82169050919050565b6000819050919050565b6000610bd882610bdf565b9050919050565b6000610bea82610bf1565b9050919050565b6000610bfc82610ba3565b9050919050565b82818337600083830152505050565b60005b83811015610c30578082015181840152602081019050610c15565b83811115610c3f576000848401525b50505050565b60006002820490506001821680610c5d57607f821691505b60208210811415610c7157610c70610c77565b5b50919050565b7f4e487b7100000000000000000000000000000000000000000000000000000000600052602260045260246000fd5b7f4e487b7100000000000000000000000000000000000000000000000000000000600052604160045260246000fd5b6000601f19601f8301169050919050565b610cef81610b91565b8114610cfa57600080fd5b50565b610d0681610bc3565b8114610d1157600080fd5b5056fea2646970667358221220574b105f6f7d4dc7408a0f038c90d4458d7d7bfe1b941161d0c46247fa134e4864736f6c63430008000033",
  "linkReferences": {},
  "deployedLinkReferences": {}
}